:100000000C9484050C94A1050C94A1050C94A105F5
:100010000C94A1050C94A1050C94A1050C94A105C8
:100020000C94A1050C94A1050C94A1050C94A105B8
:100030000C94A1050C94A1050C94A1050C94A105A8
:100040000C94A1050C94A1050C9462060C94A105D6
:100050000C94A1050C94A1050C94A1050C94A10588
:100060000C94A1050C94A105446F73656E20456C3A
:10007000656B74726F00484D4520495442004C61D5
:10008000622044617361722054656B6E696B204518
:100090006C656B74726F00486162697300527573AE
:1000A000616B00446970696E6A616D0054657273BA
:1000B0006564696100496E737472756D656E004D9B
:1000C000696B726F6B6F6E74726F6C657200416BEF
:1000D000747561746F720053656E736F72002D2DAD
:1000E0002D2D2D2D2D2D2D2D2D2D2D2D2D2D2D2D40
:1000F0002D2D2D2D2D2D2D2D2D2D2D2D2D2D2D2D30
:100100002D2D2D2D2D2D2D2D2D2D2D2D2D2D2D2D1F
:100110000A3E3E002020205F7C7C5F207E2D2F2029
:100120000A0020202028203E5F2D5F2C200A00207E
:1001300020202027602E0A0028205F5F20202D5CD1
:100140006E00205F292E2E2020605F0A0020202CC8
:10015000602F202F200A00382E2044554D500A00D1
:10016000372E2053484F570A00362E2044454C4521
:1001700054453B4944200A00352E205550445354E1
:1001800041543B49443B5354415455535F424152BF
:10019000550A00342E205550444A4D4C3B49443BAF
:1001A0004A554D4C41485F424152550A00342E2079
:1001B00044454C4554453B49440A00332E205345A1
:1001C000415243483B49440A00322E20494E534590
:1001D0005254533B49443B4E414D413B4B41543BB0
:1001E0004A4D4C3B4C4F4B4153493B535441543B7C
:1001F0004F574E3B5049430A00312E204D454E5536
:10020000202F2048454C500A002D2D2D20464954C2
:10021000555220434F4D4D414E44205445524D4977
:100220004E414C202D2D2D0A00466F726D61743A9F
:10023000204D454E55206174617520434D443B501F
:100240004152414D313B504152414D323B2E2E2EB9
:100250000A0A20003D3D3D3D3D3D20494E56454E5C
:100260005441524953205445524D494E414C20521D
:1002700045414459203D3D3D3D3D3D0A002D2D2D3C
:100280002D2D2D2D2D2D2D2D2D2D2D2D2D2D2D2D9E
:100290002D2D2D2D2D2D2D2D2D2D2D2D2D2D2D2D8E
:1002A0002D2D2D2D2D2D2D2D2D2D2D2D2D2D2D0AA1
:1002B000002062797465730A00417661696C61623D
:1002C0006C65205352414D20526F6F6D3A200053A0
:1002D000797374656D207374617475733A2041434A
:1002E000544956450A002D2D2D2D2D2D2D2D2D2D0A
:1002F0002D2D2D2D2D2D2D2D2D2D2D2D2D2D2D2D2E
:100300002D2D2D2D2D2D2D2D2D2D2D2D2D2D2D2D1D
:100310002D2D2D2D2D2D2D2D0A003E3C203E3C2037
:100320003E3C203E3C203E3C203E3C203E3C203E8D
:100330003C203E3C204552524F523A203A204974CC
:10034000656D20746964616B20646974656D756B9B
:10035000616E203E3C203E3C203E3C203E3C203E08
:100360003C203E3C203E3C203E3C203E3C203E3C4F
:10037000203E3C0A0053756B736573203C28272D83
:10038000273C29205E28272D27295E20283E272D5F
:1003900027293E20537461747573206974656D203C
:1003A000626572686173696C20646970657262610C
:1003B0007275692E0A003E3C203E3C203E3C203EA9
:1003C0003C203E3C204552524F523A203A2049743C
:1003D000656D20746964616B20646974656D756B0B
:1003E000616E203E3C203E3C203E3C203E3C203E78
:1003F0003C0A0053756B736573203C28272D273CFE
:1004000029205E28272D27295E20283E272D2729F1
:100410003E204A756D6C6168206974656D20626567
:1004200072686173696C206469706572626172756B
:10043000692E0A003E3C203E3C203E3C203E3C20B3
:100440003E3C204552524F523A2053746F6B2074F9
:100450006964616B206D656E63756B75706920757D
:100460006E74756B20646970696E6A616D203E3CC4
:10047000203E3C203E3C203E3C203E3C0A007E5E2E
:100480007E5E7E5E7E5E7E5E7E5E7E5E7E5E0A005E
:10049000206974656D206C6167690A004B61706149
:1004A000736974617320203A204D756174207365FF
:1004B0006B69746172200020627974650A00536967
:1004C0007361204D656D6F72693A20000A7E5E7E11
:1004D0005E204D454D4F5249205352414D207E5E86
:1004E0007E5E0A00206974656D0A002020202020AD
:1004F000203A200052616B20000A7E5E7E5E7E5EA6
:10050000204C4F4B41534920285045522052414BDB
:1005100029207E5E7E5E7E5E0A000A00496E73744C
:1005200072756D656E20203A20000A004B6162658D
:100530006C2020202020203A20000A004D696B6F9B
:100540006E2020202020203A20000A00416B747584
:1005500061746F722020203A20000A0053656E7388
:100560006F7220202020203A20000A7E5E7E5E7E70
:100570005E204B415445474F5249207E5E7E5E7E51
:100580005E0A000A00486162697320202020202052
:100590003A20000A00527573616B20202020202031
:1005A0003A20000A00446970696E6A616D2020205B
:1005B0003A20000A00546572736564696120202046
:1005C0003A20000A7E5E7E5E7E5E20535441545582
:1005D00053207E5E7E5E7E5E0A000A00546F746168
:1005E0006C204974656D203A20000A7E5E7E5E7E36
:1005F0005E2053544154495354494B20494E56456B
:100600004E5441524953207E5E7E5E7E5E0A000A51
:10061000003B003B003B003B003B003B003B0044F9
:100620004154413B003E3C203E3C203E3C203E3C71
:10063000203E3C204552524F523A203A20497465A0
:100640006D20746964616B20646974656D756B619C
:100650006E2C20676167616C206D656E67686170E4
:1006600075732E203E3C203E3C203E3C203E3C20EC
:100670000A002D2D2D2D2D2D2D2D2D2D2D383C2DE0
:100680002D2D4974656D20626572686173696C20F7
:10069000646968617075732D2D2D2D2D2D2D2D2DD7
:1006A0002D0A00496E707574206265726861736905
:1006B0006C20646970726F7365730A003E3C203E63
:1006C0003C203E3C203E3C204552524F523A203A7C
:1006D00020616C6F6B617369206D656D6F7269204D
:1006E000676167616C203E3C203E3C203E3C203EE2
:1006F0003C203E3C0A00506572696E676174616E11
:100700002121204D656D6F7269206D756C616920C6
:100710006D656E697069732E0A004552524F523AE8
:10072000203A206D656D6F72692073756461682071
:1007300070656E7568210A003E3C203E3C203E3CC0
:10074000203E3C203E3C204552524F523A203A2017
:100750004974656D2064656E67616E204944207937
:10076000616E672073616D612073756461682061DB
:10077000646121203E3C203E3C203E3C203E3C200B
:100780000A003E3C203E3C203E3C203E3C20455260
:10079000524F523A20436F6D6D616E6420746964EC
:1007A000616B20646974656D756B616E203E3C20E1
:1007B0003E3C203E3C203E3C0A003E3C203E3C204D
:1007C0003E3C203E3C203E3C203E3C203E3C203EE9
:1007D0003C203E3C204552524F523A2050617261BB
:1007E0006D657465722055504453544154207469AA
:1007F00064616B206C656E676B6170203E3C203ECF
:100800003C203E3C203E3C203E3C203E3C203E3CAA
:10081000203E3C203E3C203E3C203E3C0A003E3CEC
:10082000203E3C203E3C203E3C203E3C2045525257
:100830004F523A20506172616D6574657220555057
:10084000444A4D4C20746964616B206C656E676B23
:100850006170203E3C203E3C203E3C203E3C203E01
:100860003C0A0044554D505F444F4E45203C3A33BE
:10087000297E7E7E7E0A003E3C203E3C203E3C207F
:100880003E3C204552524F523A2049442068617202
:100890007573206469697369203E3C203E3C203EAC
:1008A0003C203E3C0A000A002020205049432020E2
:1008B000202020203A20000A007E007600680020D8
:1008C000202050656D696C696B20203A20000A0079
:1008D000AC00A3009D009700202020537461747524
:1008E000732020203A20000A002020204C6F6B61EA
:1008F00073692020203A20000A002020204A756DCC
:100900006C61682020203A20000A00D700CE00BF8A
:1009100000B5002020204B617465676F7269203A32
:1009200020000A002020204E616D61202020202020
:100930003A20000A002020204944202020202020A6
:10094000203A2000204974656D20446974656D75F6
:100950006B616E200A003E3C203E3C203E3C203E27
:100960003C204552524F523A2049442074696461F8
:100970006B20646974656D756B616E203E3C203E32
:100980003C203E3C203E3C203E3C0A003E3C203E7B
:100990003C203E3C203E3C204552524F523A20499A
:1009A00044206861727573206469697369203E3CF4
:1009B000203E3C203E3C203E3C0A003E3C203E3C4B
:1009C000203E3C203E3C204552524F523A2070611E
:1009D00072616D6574657220746964616B206C6509
:1009E0006E676B6170203E3C203E3C203E3C203ECA
:1009F0003C0A002020205F7C7C5F207E2D2F200A77
:100A00000020202028203E5F2D5F2C200A0020207F
:100A1000202027602E0A0028205F5F20202D5C6E9A
:100A200000205F292E2E2020605F0A0020202C60ED
:100A30002F202F200A00382E2044554D500A003711
:100A40002E2053484F573B4944200A00362E20445D
:100A5000454C4554453B4944200A00352E2055500D
:100A600044535441543B49443B5354415455535FC0
:100A7000424152550A00342E205550444A4D4C3BB9
:100A800049443B4A554D4C41485F424152550A004A
:100A9000332E205345415243483B49440A00322EED
:100AA00020494E53455254533B49443B4E414D41DE
:100AB0003B4B41543B4A4D4C3B4C4F4B4153493BC4
:100AC000535441543B4F574E3B5049430A00312E3B
:100AD000204D454E55202F2048454C500A002D2DC5
:100AE0002D20464954555220434F4D4D414E4420F0
:100AF0005445524D494E414C202D2D2D0A003E3E6D
:100B0000000A00082008000011241FBECFEFD8E023
:100B1000DEBFCDBF11E0A0E0B1E0E8E5FBE102C03F
:100B200005900D92A234B107D9F721E0A2E4B1E01B
:100B300001C01D92A93EB207E1F70E948C060C94F9
:100B4000AA0D0C9400009091C00095FFFCCF8093FB
:100B5000C60008950F931F93CF93DF9300D000D06A
:100B60001F92CDB7DEB700E02AE030E0009769F4CD
:100B700080E30F900F900F900F900F90DF91CF9127
:100B80001F910F910C94A305042F41E0400F002EFC
:100B9000000C110BE1E0F0E0EC0FFD1FE00FF11F86
:100BA000B9010E946A0D805D8083CB01009761F7D7
:100BB00007FF0AC00F900F900F900F900F90DF91DA
:100BC000CF911F910F910895E1E0F0E0EC0FFD1F30
:100BD000E00FF11F80810E94A30501501109E8CFA9
:100BE0000F931F93CF938C01F801C491C11104C0DE
:100BF000CF911F910F910895CA3019F48DE00E9492
:100C0000A3058C2F0E94A3050F5F1F4FEDCFCF933D
:100C1000DF93EC018991811103C0DF91CF91089599
:100C20008A3019F48DE00E94A305FE01319780817E
:100C30000E94A305EFCFCF93DF939C01EB0167E008
:100C400070E00E946A0DFC01EE0FFF1FEE5BFE4F8D
:100C50000190F081E02D19821882309739F080815F
:100C600091818217930729F4F983E883DF91CF916B
:100C700008950588F689E02DF0CFCF93DF931F927A
:100C8000CDB7DEB74091E5015091E6019E012F5F9F
:100C90003F4F4115510549F4295E3140FC01318334
:100CA00020830F90DF91CF910895241B350BF6CF51
:100CB000E62FF0E0EE0FFF1FE80FF91F85919491EA
:100CC0000C94F0051F920F920FB60F9211242F93E0
:100CD0003F938F939F93EF93FF932091C600809152
:100CE000E20190E001968F7399273091E101381766
:100CF00041F0E091E201F0E0EF55FE4F2083809358
:100D0000E201FF91EF919F918F913F912F910F9071
:100D10000FBE0F901F901895CF93DF93CDB7DEB71E
:100D2000CE54D1090FB6F894DEBF0FBECDBF1092DE
:100D3000C50087E68093C40088E98093C10086E0FF
:100D40008093C20078941092430110924201109255
:100D500045011092440110924701109246011092F1
:100D600049011092480110924B0110924A011092D1
:100D70004D0110924C0110924F0110924E011092B1
:100D8000A0011092500186EE92E00E94F0058FECD7
:100D900092E00E94F0051A8219828E010F5F1F4FA8
:100DA000C8010E943D0689EB92E00E94F00589810E
:100DB0009A810E94AA0581EB92E00E94F0058DE7DE
:100DC00092E00E94F00584E592E00E94F00589E23D
:100DD00092E00E94F00589E092E00E94F00589EF20
:100DE00091E00E94F00589EC91E00E94F0058BEB08
:100DF00091E00E94F0058DEA91E00E94F00583E900
:100E000091E00E94F00588E791E00E94F00589E6F4
:100E100091E00E94F00580E691E00E94F00587E5F0
:100E200091E00E94F0058DE491E00E94F00582E4DB
:100E300091E00E94F00588E391E00E94F0058FE2C6
:100E400091E00E94F00582E291E00E94F00584E1C9
:100E500091E00E94F0058EED90E00E94F0059E0169
:100E6000215C3F4F2D963FAF2EAF2D978091E20131
:100E70002091E10190E0805C9F4F821B910960E42A
:100E800070E00E947E0DDE01D5962B96BFAFAEAF0F
:100E90002B97882359F39091E2018091E1019817F3
:100EA000D1F3E091E101F0E0EF55FE4FE080809159
:100EB000E10190E001968F7399278093E101BFE7EC
:100EC000EB1619F0E8E0EE121DC0E091A001EE2350
:100ED00059F0E150E093A001F0E0E05BFE4F10829A
:100EE00083E09BE00E94F0058091E2012091E10106
:100EF00090E0805C9F4F821B910960E470E00E944B
:100F00007E0DC7CFFDE0EF1619F02AE0E21253C4C0
:100F1000E091A001EE2341F3F0E0E05BFE4F108290
:100F200081E09BE00E94F00566E071E080E591E0E1
:100F30000E94360D7C01009709F44AC068E071E018
:100F40000E94920D892B41F06DE071E0C7010E9473
:100F5000920D892B09F043C08EED9AE00E94F005B6
:100F60008EEC9AE00E94F0058EE99AE00E94F0056E
:100F700080E99AE00E94F00586E79AE00E94F00579
:100F80008BE59AE00E94F0058CE49AE00E94F0055F
:100F90008FE39AE00E94F00586E39AE00E94F00554
:100FA0008CE29AE00E94F00581E29AE00E94F0054E
:100FB00087E19AE00E94F0058EE09AE00E94F00539
:100FC00081E09AE00E94F00583EF99E00E94F0052D
:100FD0001092A001109250018EEF9AE083CF62E14F
:100FE00071E0C7010E94920D892B09F0D6C066E01E
:100FF00071E090E080E00E94360D7C0166E071E0D7
:1010000090E080E00E94360D1C0166E071E090E007
:1010100080E00E94360D4C0166E071E090E080E0D7
:101020000E94360D5C0166E071E090E080E00E9475
:10103000360D2F969FAF8EAF2F9766E071E090E050
:1010400080E00E94360D3C0166E071E090E080E0B7
:101050000E94360D6C0166E071E090E080E00E9435
:10106000360D2C01E114F104C1F021143104A9F072
:101070008114910491F0A114B10479F02F968EADF2
:101080009FAD2F97892B49F06114710431F0C11481
:10109000D10419F04114510419F48BEB99E096CF67
:1010A000C7010E94180D7C01C4010E94180D982EE2
:1010B000C5010E94180DB82EC3010E94180DA82E5C
:1010C000C6010E94180D882E1A821982B801C70124
:1010D0000E941B0689819A81892B19F088E397E089
:1010E00075CFCE01C5960E943D068DA99EA9853774
:1010F000A1E09A0718F48AE197E068CF8B3092401C
:1011000020F486EF96E00E94F00587E190E00E94CF
:10111000F30B6C018CEB96E0C114D10409F456CFAB
:10112000F601F182E0829086B186A686878645E048
:1011300050E0B101C60102960E949B0DD6011796A0
:101140001C9243E050E02F966EAD7FAD2F97C60105
:101150000A960E949B0DF601158644E050E0B2010C
:10116000C60140960E949B0DD60154961C92C70161
:1011700067E070E00E946A0DFC01EE0FFF1FEE5B5E
:10118000FE4F80819181D60156969C938E93559700
:10119000D182C08283EA96E019CF6AE171E0C7018B
:1011A0000E94920D892B09F08CC066E071E090E0FE
:1011B00080E00E94360D009719F48CE899E006CF84
:1011C0000E94180D1A821982B8010E941B0689819B
:1011D0009A81892B19F486E599E0F8CE84E499E0A8
:1011E0000E94F00585E399E00E94F005E981FA810B
:1011F000808191810E94AA0583E399E00E94F00515
:1012000084E299E00E94F00589819A8102960E9409
:10121000070682E299E00E94F00583E199E00E94CE
:10122000F005E981FA8160858BE099E00E9458061B
:1012300089E099E00E94F0058AEF98E00E94F005AD
:10124000E981FA81818590E00E94AA0588EF98E003
:101250000E94F00589EE98E00E94F00589819A814C
:101260000A960E94070687EE98E00E94F00588ED36
:1012700098E00E94F005E981FA81608580ED98E0B0
:101280000E9458068EEC98E00E94F0058FEB98E0E3
:101290000E94F005E981FA81608589EB98E00E945F
:1012A000580687EB98E00E94F00588EA98E00E94D3
:1012B000F00589819A8140960E94070686EA98E0A7
:1012C00085CE61E271E0C7010E94920D892B09F081
:1012D00040C066E071E090E080E00E94360D00972B
:1012E00019F487E798E072CE0E94180D9C0167E020
:1012F00070E00E946A0D880F991FFC01EE5BFE4FA3
:101300000190F081E02DB0E0A0E0309719F485E283
:1013100096E05CCE40815181758966892417350736
:10132000A1F4109761F4DC01AE5BBE4F7C93119683
:101330006C93CF010E948F0C82E796E047CE5596C2
:101340007C93559756966C93F4CFDF01E72FF62FD9
:10135000DCCF68E271E0C7010E94920D892B09F091
:1013600062C052E4C52E51E0D52EF601E190F19015
:101370006F01E114F10441F420E531E02C153D0545
:10138000A1F783E698E022CE8FE196E00E94F00577
:10139000D7018D919D915D010E94AA058DE196E096
:1013A0000E94F005C5010E9407068BE196E00E94AD
:1013B000F005F701808590E00E94AA0589E196E09A
:1013C0000E94F005D70119968C9190E00E94AA0521
:1013D00087E196E00E94F005C7010A960E94070681
:1013E00085E196E00E94F005F701868590E00E9475
:1013F000AA0583E196E00E94F005D7011F968C9123
:1014000090E00E94AA0581E196E00E94F005C701E4
:1014100040960E9407068FE096E00E94F005F701D3
:10142000E588F688A6CF6DE271E0C7010E94920DB3
:10143000892B09F04AC12B96AEADBFAD2B97EAE0E0
:101440001D92EA95E9F72D96AEADBFAD2D97E8E078
:101450001D92EA95E9F784E3D8011D928A95E9F790
:1014600082E491E0F12CE12CFC01A191B191CF013A
:10147000109709F0ECC020E531E028173907A1F7F3
:1014800029961FAE1EAE2997CE01895B9F4F0E9401
:101490003D0629968EAD9FAD29978E559140299690
:1014A0009FAF8EAF299767E170E00E946A0D5B01E4
:1014B0008AEE95E00E94F0058CED95E00E94F00523
:1014C000C7010E94AA058AED95E00E94F00583EC11
:1014D00095E00E94F00585EB95E00E94F0052196CD
:1014E0008EAD9FAD21970E94AA0583EB95E00E94E7
:1014F000F00585EA95E00E94F00523968EAD9FAD3C
:1015000023970E94AA0583EA95E00E94F00585E9E9
:1015100095E00E94F00525968EAD9FAD25970E941F
:10152000AA0583E995E00E94F00585E895E00E9410
:10153000F00527968EAD9FAD27970E94AA0583E8F8
:1015400095E00E94F0058AE695E00E94F0058CE5A2
:1015500095E00E94F0058DA99EA90E94AA058AE542
:1015600095E00E94F0058CE495E00E94F0058FA9BB
:1015700098AD0E94AA058AE495E00E94F0058CE3EC
:1015800095E00E94F00589AD9AAD0E94AA058AE314
:1015900095E00E94F0058CE295E00E94F0058BAD8D
:1015A0009CAD0E94AA058AE295E00E94F0058CE1BC
:1015B00095E00E94F0058DAD9EAD0E94AA058AE1DE
:1015C00095E00E94F00589EF94E00E94F005780113
:1015D00081E4982ED701CD90DD907D01C114D10416
:1015E00091F084EF94E00E94F005892D0E94A305FC
:1015F0008BEE94E00E94F005C6010E94AA0584EEDD
:1016000094E00E94F0059394BBE59B12E3CF8CEC31
:1016100094E00E94F0058EEB94E00E94F00529967C
:101620008EAD9FAD29970E94AA0587EB94E00E949A
:10163000F0058CE994E00E94F005C5010E94AA051E
:1016400080E994E00E94F0058EE794E0BFCCFFEFC4
:10165000EF1AFF0A1896EC911897E53058F4F0E06D
:10166000EE0FFF1FE00FF11F24A935A92F5F3F4F99
:1016700035AB24AB1E96EC911E97E43058F4F0E0A5
:10168000EE0FFF1FE00FF11F26AD37AD2F5F3F4F6D
:1016900037AF26AF1A96EC911A972FEB2E0F2A31FF
:1016A00078F40E2E000CFF0BE154F109EE0FFF1F32
:1016B000E00FF11F208131812F5F3F4F3183208365
:1016C00055960D90BC91A02DD3CE62E371E0C70179
:1016D0000E94920D892BC1F566E071E090E080E0F8
:1016E0000E94360D6C0166E071E090E080E00E949F
:1016F000360D7C01C114D10411F0892B19F48EE14F
:1017000098E064CCC6010E94180D6C01C7010E94CC
:10171000180D7C01B801C6010E941B06E981FA81FF
:1017200086EB93E0309709F451CC8185F7FE07C032
:101730009E2D9195891718F484E394E047CCE80E28
:10174000E18683EF93E042CC69E371E0C7010E9438
:10175000920D892B69F566E071E090E080E00E94CF
:10176000360D6C0166E071E090E080E00E94360D7D
:101770007C01C114D10411F0892B19F48AEB97E094
:1017800025CCC6010E94180D6C01C7010E94180DDE
:10179000F82EB801C6010E941B06E981FA818AE190
:1017A00093E0309709F412CCF68685E793E00ECCEF
:1017B00082E897E00BCC80EE8E0D8F3508F094CB4D
:1017C000F090A001EEE4EF1508F48ECB8E2D0E9470
:1017D000A30581E08F0D8093A001EF2DF0E0E05B89
:1017E000FE4FE08281CB0F931F93CF93DF93823024
:1017F000910510F482E090E0E091E701F091E801BA
:1018000030E020E0B0E0A0E0309799F421153105F8
:1018100009F44AC0281B390B24303105D8F58A81D8
:101820009B816115710589F1FB0193838283FE0120
:1018300011C0408151810281138148175907E0F09E
:101840004817590799F4109761F012960C93129764
:1018500013961C933296CF01DF91CF911F910F9178
:1018600008950093E7011093E801F4CF21153105A5
:1018700051F04217530738F0A901DB019A01BD016D
:10188000DF01F801C1CFEF01F9CF9093E801809318
:10189000E701CDCFFE01E20FF31F81939193225018
:1018A000310939832883D7CF2091E5013091E601B2
:1018B000232B41F420910201309103013093E60182
:1018C0002093E5012091000130910101211531059E
:1018D00041F42DB73EB74091040150910501241BFE
:1018E000350BE091E501F091E601E217F307A0F472
:1018F0002E1B3F0B2817390778F0AC014E5F5F4F66
:101900002417350748F04E0F5F1F5093E6014093B0
:10191000E501819391939FCFF0E0E0E09CCFCF93DE
:10192000DF930097E9F0FC01329713821282A091B5
:10193000E701B091E801ED0130E020E01097A1F45B
:1019400020813181820F931F2091E5013091E601C2
:101950002817390709F061C0F093E601E093E5012B
:10196000DF91CF910895EA01CE17DF07E8F54A81AC
:101970005B819E0141155105B1F7E901FB83EA83C3
:1019800049915991C40FD51FEC17FD0761F480816F
:1019900091810296840F951FE90199838883828142
:1019A00093819B838A83F0E0E0E012968D919C9175
:1019B00013970097B9F52D913C911197CD0102969F
:1019C000820F931F2091E5013091E6012817390716
:1019D00039F6309751F51092E8011092E701B09373
:1019E000E601A093E501BCCFD383C283408151813E
:1019F000840F951FC817D90761F44E5F5F4F888128
:101A00009981480F591F518340838A819B81938319
:101A100082832115310509F0B0CFF093E801E093FE
:101A2000E7019ECFFD01DC01C0CF13821282D7CF28
:101A3000FC0188279927E89421912032E9F3293085
:101A400010F02E30C8F32B3241F02D3239F4689467
:101A500004C00E94620D820F911D219120532A30F3
:101A6000C0F31EF4909581959F4F089543EE51E089
:101A70000E943B0D0895FA01A191B081009719F4DD
:101A80001097E1F0CD01DC01CD010D90002011F4A3
:101A9000C00113C0FB012191222319F02015D9F7B1
:101AA000F3CFFB012191201519F41E92119606C067
:101AB0002223C1F70D900020A1F7D001FA01A193D4
:101AC000B08308957AE0979F902D879F802D910D88
:101AD00011240895AA1BBB1B51E107C0AA1FBB1FFD
:101AE000A617B70710F0A61BB70B881F991F5A95AA
:101AF000A9F780959095BC01CD01089597FB072E1D
:101B000016F4009407D077FD09D00E946A0D07FCF7
:101B100005D03EF4909581959F4F089570956195FD
:101B20007F4F0895FB01DC018D9101908019011018
:101B3000D9F3990B0895FB01DC014150504048F066
:101B400001900D920020C9F701C01D9241505040F4
:081B5000E0F70895F894FFCFBF
:101B58000000E90180003B004D454E550048454CCA
:101B68005000494E5345525453005345415243483F
:101B78000044454C4554450044554D500053484F8A
:101B880057005550444A4D4C005550445354415405
:021B980000004B
:00000001FF
